:100000000C9435000C945D000C945D000C945D0024
:100010000C945D000C945D000C945D000C945D00EC
:100020000C945D000C945D000C945D000C945D00DC
:100030000C945D000C945D000C945D000C945D00CC
:100040000C946C010C945D000C94DC010C94B601D2
:100050000C945D000C945D000C945D000C945D00AC
:100060000C945D000C945D002F0311241FBECFEF94
:10007000D8E0DEBFCDBF11E0A0E0B1E0ECE0F7E0FA
:1000800002C005900D92A631B107D9F721E0A6E193
:10009000B1E001C01D92A03CB207E1F710E0C5E35A
:1000A000D0E004C02197FE010E947E03C433D10733
:1000B000C9F70E940E020C9484030C940000AF92C6
:1000C000BF92CF92DF92EF92FF920F931F93CF9345
:1000D000DF936C017B018B01040F151FEB015E01A7
:1000E000AE18BF08C017D10759F06991D601ED913C
:1000F000FC910190F081E02DC6010995892B79F7DB
:10010000C501DF91CF911F910F91FF90EF90DF908C
:10011000CF90BF90AF900895FC01538D448D252F53
:1001200030E0842F90E0821B930B541710F0CF9691
:10013000089501970895FC01918D828D981761F0C3
:10014000A28DAE0FBF2FB11D5D968C91928D9F5FDA
:100150009F73928F90E008958FEF9FEF0895FC01B9
:10016000918D828D981731F0828DE80FF11D858D6C
:1001700090E008958FEF9FEF0895FC01918D228DFF
:10018000892F90E0805C9F4F821B91098F73992784
:10019000089586E191E00E94BD0021E0892B09F4D9
:1001A00020E0822F089580E090E0892B29F00E94C2
:1001B000C90081110C9400000895FC01A48DA80FC2
:1001C000B92FB11DA35ABF4F2C91848D90E0019699
:1001D0008F739927848FA689B7892C93A089B189B9
:1001E0008C91837080648C93938D848D981306C05A
:1001F0000288F389E02D80818F7D80830895EF92BE
:10020000FF920F931F93CF93DF93EC0181E0888FD0
:100210009B8D8C8D98131AC0E889F989808185FFA0
:1002200015C09FB7F894EE89FF896083E889F98942
:1002300080818370806480839FBF81E090E0DF9144
:10024000CF911F910F91FF90EF900895F62E0B8D97
:1002500010E00F5F1F4F0F731127E02E8C8D8E1152
:100260000CC00FB607FCFACFE889F989808185FFB9
:10027000F5CFCE010E94DD00F1CFEB8DEC0FFD2F0D
:10028000F11DE35AFF4FF0829FB7F8940B8FEA8974
:10029000FB8980818062CFCFCF93DF93EC01888D83
:1002A0008823B9F0AA89BB89E889F9898C9185FDF1
:1002B00003C0808186FD0DC00FB607FCF7CF8C917F
:1002C00085FFF2CF808185FFEDCFCE010E94DD005A
:1002D000E9CFDF91CF9108951F920F920FB60F9241
:1002E00011242F933F938F939F93AF93BF9380914C
:1002F000BC019091BD01A091BE01B091BF013091B0
:10030000BB0123E0230F2D3758F50196A11DB11D28
:100310002093BB018093BC019093BD01A093BE01CB
:10032000B093BF018091B7019091B801A091B9013C
:10033000B091BA010196A11DB11D8093B7019093B0
:10034000B801A093B901B093BA01BF91AF919F9149
:100350008F913F912F910F900FBE0F901F90189586
:1003600026E8230F0296A11DB11DD2CF1F920F9236
:100370000FB60F9211242F933F934F935F936F9378
:100380007F938F939F93AF93BF93EF93FF9386E1F8
:1003900091E00E94DD00FF91EF91BF91AF919F919D
:1003A0008F917F916F915F914F913F912F910F901E
:1003B0000FBE0F901F9018951F920F920FB60F92BD
:1003C00011242F938F939F93EF93FF93E091260136
:1003D000F09127018081E0912C01F0912D0182FDA7
:1003E0001BC0908180912F018F5F8F73209130010E
:1003F000821741F0E0912F01F0E0EA5EFE4F958F09
:1004000080932F01FF91EF919F918F912F910F90EA
:100410000FBE0F901F9018958081F4CFCF93DF937C
:10042000CDB7DEB7A1970FB6F894DEBF0FBECDBF34
:10043000789484B5826084BD84B5816084BD85B5BF
:10044000826085BD85B5816085BD80916E008160CB
:1004500080936E0010928100809181008260809371
:100460008100809181008160809381008091800073
:100470008160809380008091B10084608093B1009E
:100480008091B00081608093B00080917A00846098
:1004900080937A0080917A00826080937A008091C4
:1004A0007A00816080937A0080917A0080688093DE
:1004B0007A001092C100E0912601F091270182E0BC
:1004C0008083E0912201F09123011082E0912401C8
:1004D000F09125018FEC808310922E01E0912A018A
:1004E000F0912B0186E08083E0912801F0912901B1
:1004F000808180618083E0912801F09129018081D1
:1005000088608083E0912801F091290180818068D2
:100510008083E0912801F091290180818F7D808383
:1005200085E4782E9AE0892E912CA12CB12C00E044
:1005300010E02FB7F8948091BC019091BD01A0917B
:10054000BE01B091BF012FBF4091B3015091B401E2
:100550006091B5017091B6016C017D01C41AD50A94
:10056000E60AF70AB701A601473051056105710592
:1005700008F453C08093B3019093B401A093B501E4
:10058000B093B60170927C0080917A008064809371
:100590007A0080917A0086FDFCCFC0907800D090E0
:1005A00079000D2C000CEE08FF08F7FE42C06DE24A
:1005B00086E191E00E94FF0022273327A9012C1930
:1005C0003D094E095F0919A2CE0181967C01CA013D
:1005D000B901A50194010E945C03605DF70162937B
:1005E0007F01211531054105510589F7E114F10419
:1005F00061F001900020E9F73197AF014E195F09D2
:10060000B70186E191E00E945F0042E050E062E1C4
:1006100071E086E191E00E945F000115110509F487
:1006200088CF0E94C900882309F483CF0E9400006C
:1006300080CFA701960119A2CE0181967C01CA0143
:10064000B901A50194010E945C03605DF70162930A
:100650007F01211531054105510589F7C7CFE6E135
:10066000F1E01382128288EE93E0A0E0B0E0848390
:100670009583A683B78384E091E09183808385ECA2
:1006800090E09587848784EC90E09787868780EC5C
:1006900090E0918B808B81EC90E0938B828B82EC4D
:1006A00090E0958B848B86EC90E0978B868B118EF7
:1006B000128E138E148E0895A1E21A2EAA1BBB1B54
:1006C000FD010DC0AA1FBB1FEE1FFF1FA217B3071E
:1006D000E407F50720F0A21BB30BE40BF50B661F34
:1006E000771F881F991F1A9469F7609570958095F8
:1006F00090959B01AC01BD01CF010895EE0FFF1F46
:0C0700000590F491E02D0994F894FFCFCF
:10070C0000000000FF005F008C004C01BD009B004E
:06071C00AF000D0A000011
:00000001FF
