:100000000C9453000C947B000C947B000C947B00AC
:100010000C947B000C947B000C947B000C947B0074
:100020000C947B000C947B000C947B000C947B0064
:100030000C947B000C947B000C947B000C947B0054
:100040000C94AA020C947B000C941A030C94F402F6
:100050000C947B000C947B000C947B000C947B0034
:100060000C947B000C947B0000000000250028000D
:100070002B0000000000240027002A0004040404D0
:100080000404040402020202020203030303030342
:10009000010204081020408001020408102001021F
:1000A00004081020C90411241FBECFEFD8E0DEBF22
:1000B000CDBF21E0AEE1B1E001C01D92A83CB20786
:1000C000E1F711E0A0E0B1E0ECEFFEE002C0059046
:1000D0000D92AE31B107D9F710E0C3E5D0E004C00E
:1000E0002197FE010E948405C235D107C9F70E94FD
:1000F0004C030C947C070C9400008E508064809319
:100100007C0080917A00806480937A0080917A00EC
:1001100086FDFCCF809178009091790008953FB7DB
:10012000F8948091230190912401A0912501B09130
:10013000260126B5A89B05C02F3F19F00196A11DE9
:10014000B11D3FBFBA2FA92F982F8827BC01CD0121
:10015000620F711D811D911D42E0660F771F881F80
:10016000991F4A95D1F70895AF92BF92CF92DF922F
:10017000EF92FF920F931F93CF93DF936C017B015C
:100180008B01040F151FEB015E01AE18BF08C017ED
:10019000D10759F06991D601ED91FC910190F08160
:1001A000E02DC6010995892B79F7C501DF91CF9123
:1001B0001F910F91FF90EF90DF90CF90BF90AF9085
:1001C0000895FC01538D448D252F30E0842F90E05D
:1001D000821B930B541710F0CF9608950197089542
:1001E000FC01918D828D981761F0A28DAE0FBF2F0B
:1001F000B11D5D968C91928D9F5F9F73928F90E061
:1002000008958FEF9FEF0895FC01918D828D9817CF
:1002100031F0828DE80FF11D858D90E008958FEF0C
:100220009FEF0895FC01918D228D892F90E0805CD5
:100230009F4F821B91098F739927089587E291E060
:100240000E94120121E0892B09F420E0822F0895F9
:1002500080E090E0892B29F00E941E0181110C940E
:1002600000000895FC01A48DA80FB92FB11DA35A59
:10027000BF4F2C91848D90E001968F739927848FC6
:10028000A689B7892C93A089B1898C9183708064E9
:100290008C93938D848D981306C00288F389E02D8A
:1002A00080818F7D80830895EF92FF920F931F933B
:1002B000CF93DF93EC0181E0888F9B8D8C8D981319
:1002C0001AC0E889F989808185FF15C09FB7F89425
:1002D000EE89FF896083E889F98980818370806471
:1002E00080839FBF81E090E0DF91CF911F910F91BC
:1002F000FF90EF900895F62E0B8D10E00F5F1F4FCB
:100300000F731127E02E8C8D8E110CC00FB607FCD9
:10031000FACFE889F989808185FFF5CFCE010E9467
:100320003201F1CFEB8DEC0FFD2FF11DE35AFF4FA2
:10033000F0829FB7F8940B8FEA89FB8980818062F5
:10034000CFCFCF93DF93EC01888D8823B9F0AA89B2
:10035000BB89E889F9898C9185FD03C0808186FD80
:100360000DC00FB607FCF7CF8C9185FFF2CF8081CF
:1003700085FFEDCFCE010E943201E9CFDF91CF9111
:1003800008958F929F92AF92BF920F931F93CF9336
:10039000DF93CDB7DEB7A1970FB6F894DEBF0FBEDF
:1003A000CDBF19A2423008F44AE08E010F5D1F4F05
:1003B000842E912CB12CA12CA50194010E946205E0
:1003C000E62FB901CA01EA3044F5E05DD801EE93A9
:1003D0008D01232B242B252B79F790E080E01097BB
:1003E00069F0FD0101900020E9F73197AF014A1B48
:1003F0005B0BBD0187E291E00E94B400A1960FB6AD
:10040000F894DEBF0FBECDBFDF91CF911F910F914A
:10041000BF90AF909F908F900895E95CD7CFCF9316
:10042000DF93EC0188819981009711F00E942606E4
:10043000198218821D821C821B821A82DF91CF9141
:100440000895FC0180819181009711F00C9426069B
:1004500008950F931F93CF93DF93EC0188819981C7
:10046000009759F02A813B812617370730F081E049
:10047000DF91CF911F910F9108958B016F5F7F4F97
:100480000E94AF06009759F0998388831B830A83E3
:100490002C813D81232B59F7FC011082E8CF80E0AD
:1004A000E7CFEF92FF920F931F93CF93DF93EC016F
:1004B0007B018A01BA010E94290281110BC0CE0181
:1004C0000E940F02CE01DF91CF911F910F91FF90FB
:1004D000EF9008951D830C83B701888199810E9454
:1004E0007507F0CFEF92FF920F931F93CF93DF9397
:1004F000CDB7DEB762970FB6F894DEBF0FBECDBFA3
:100500008C01CB01F80111821082138212821582B4
:1005100014824AE09E012F5F3F4F7901B9010E948A
:10052000F604F70101900020E9F73197AF014E1969
:100530005F09B701C8010E94510262960FB6F89494
:10054000DEBF0FBECDBFDF91CF911F910F91FF9006
:10055000EF9008951F920F920FB60F9211242F93D0
:100560003F938F939F93AF93BF9380911F0190917F
:100570002001A0912101B091220130911E0123E0C0
:10058000230F2D3758F50196A11DB11D20931E0193
:1005900080931F0190932001A0932101B093220129
:1005A0008091230190912401A0912501B091260111
:1005B0000196A11DB11D8093230190932401A09366
:1005C0002501B0932601BF91AF919F918F913F91EB
:1005D0002F910F900FBE0F901F90189526E8230FB4
:1005E0000296A11DB11DD2CF1F920F920FB60F928E
:1005F00011242F933F934F935F936F937F938F9328
:100600009F93AF93BF93EF93FF9387E291E00E9494
:100610003201FF91EF91BF91AF919F918F917F91A7
:100620006F915F914F913F912F910F900FBE0F905F
:100630001F9018951F920F920FB60F9211242F93AF
:100640008F939F93EF93FF93E0913701F0913801DF
:100650008081E0913D01F0913E0182FD1BC09081BF
:10066000809140018F5F8F7320914101821741F08B
:10067000E0914001F0E0E95DFE4F958F80934001ED
:10068000FF91EF919F918F912F910F900FBE0F903F
:100690001F9018958081F4CFCF93DF93CDB7DEB74D
:1006A00068970FB6F894DEBF0FBECDBF789484B5BF
:1006B000826084BD84B5816084BD85B5826085BD5E
:1006C00085B5816085BD80916E00816080936E00EC
:1006D00010928100809181008260809381008091DE
:1006E000810081608093810080918000816080938F
:1006F00080008091B10084608093B1008091B0004F
:1007000081608093B00080917A00846080937A0049
:1007100080917A00826080937A0080917A00816073
:1007200080937A0080917A00806880937A0010929A
:10073000C100E0913701F091380182E08083E091BF
:100740003301F09134011082E0913501F0913601CE
:1007500080E1808310923F01E0913B01F0913C01E8
:1007600086E08083E0913901F0913A0180818061D7
:100770008083E0913901F0913A0180818860808323
:10078000E0913901F0913A01808180688083E091A5
:100790003901F0913A0180818F7D8083EEE9F0E0AC
:1007A0002491EAE8F0E084918823C9F090E0880F72
:1007B000991FFC01EE58FF4F45915491FC01E859F7
:1007C000FF4FA591B4919FB7F894FA0180812095CD
:1007D000822380838C91E22FE823EC939FBF00E07B
:1007E00010E08EE00E947D006C0183E10E947D009C
:1007F000BC01CE0101960E947202B601CE010D9697
:100800000E94720218861F821A8619861C861B8611
:100810006D857E856115710531F049895A89CE0152
:1008200007960E945102EB84FC84FFEFEF1AFF0A47
:10083000B701CE0107960E942902882309F49FC0C0
:100840002F8138858B859C8568E171E0820F931F2D
:100850000E947507FC86EB86A980BA80A114B104BA
:1008600009F492C0ED80FE80E114F104B9F08B85AB
:100870009C85E80EF91EB701CE0107960E94290259
:10088000882309F481C02F8138858B859C85B5012B
:10089000820F931F0E947507FC86EB861C8A1B8AB9
:1008A0001E8A1D8A188E1F8A6F81788561157105D1
:1008B00031F04B855C85CE0143960E945102CE01FA
:1008C00007960E942102CE010D960E942102CE01C0
:1008D00001960E9421020D2C000CEE08FF084AE050
:1008E000C701B601F7FE0DC06DE287E291E00E94FC
:1008F000540166277727CB016C197D098E099F0962
:100900004AE00E94C10142E050E06AE171E087E202
:1009100091E00E94B4000E948F004B015C0182E3D1
:10092000C82ED12CE12CF12C0E948F006819790976
:100930008A099B09683E734081059105A8F321E06F
:10094000C21AD108E108F10888EE880E83E0981EEB
:10095000A11CB11CC114D104E104F10429F7CE019A
:1009600043960E9421020115110509F43ACF0E9415
:100970001E01882309F435CF0E94000032CFCE013A
:1009800007960E940F0268CFCE0107960E940F02C1
:1009900085CFE7E2F1E01382128288EE93E0A0E0D7
:1009A000B0E084839583A683B7838AE091E0918346
:1009B000808385EC90E09587848784EC90E097872E
:1009C000868780EC90E0918B808B81EC90E0938B1C
:1009D000828B82EC90E0958B848B86EC90E0978BF9
:1009E000868B118E128E138E148E0895BB274A307B
:1009F00031F4992322F4BDE2909581959F4F0C9498
:100A00000205BB27FB015527AA27880F991FAA1F9C
:100A1000A41710F0A41B83955051B9F7A05DAA3319
:100A200008F0A95DA193009779F7B111B1931192E4
:100A3000CB010C941B05DC01FC01672F719177231E
:100A4000E1F7329704C07C916D9370836291AE1789
:100A5000BF07C8F308952F923F924F925F926F9213
:100A60007F928F929F92AF92BF92CF92DF92EF923E
:100A7000FF920F931F93CF93DF93CDB7DEB7CA1BBF
:100A8000DB0B0FB6F894DEBF0FBECDBF09942A88EA
:100A9000398848885F846E847D848C849B84AA8492
:100AA000B984C884DF80EE80FD800C811B81AA811F
:100AB000B981CE0FD11D0FB6F894DEBF0FBECDBFEA
:100AC000ED010895A1E21A2EAA1BBB1BFD010DC06A
:100AD000AA1FBB1FEE1FFF1FA217B307E407F507EE
:100AE00020F0A21BB30BE40BF50B661F771F881FCA
:100AF000991F1A9469F760957095809590959B0160
:100B0000AC01BD01CF010895EE0FFF1F0590F491D8
:100B1000E02D09940F931F93CF93DF9382309105BB
:100B200010F482E090E0E091C601F091C70130E05E
:100B300020E0B0E0A0E0309799F42115310509F4E8
:100B40004AC0281B390B24303105D8F58A819B8196
:100B50006115710589F1FB0193838283FE0111C048
:100B6000408151810281138148175907E0F04817ED
:100B7000590799F4109761F012960C9312971396F7
:100B80001C933296CF01DF91CF911F910F91089561
:100B90000093C6011093C701F4CF2115310551F020
:100BA0004217530738F0A901DB019A01BD01DF01AB
:100BB000F801C1CFEF01F9CF9093C7018093C6012F
:100BC000CDCFFE01E20FF31F8193919322503109A3
:100BD00039832883D7CF2091C4013091C501232BBD
:100BE00041F420910201309103013093C50120931B
:100BF000C40120910001309101012115310541F41A
:100C00002DB73EB74091040150910501241B350BCF
:100C1000E091C401F091C501E217F307A0F42E1B87
:100C20003F0B2817390778F0AC014E5F5F4F241750
:100C3000350748F04E0F5F1F5093C5014093C40124
:100C4000819391939FCFF0E0E0E09CCFCF93DF932F
:100C50000097E9F0FC01329713821282A091C6013D
:100C6000B091C701ED0130E020E01097A1F42081A0
:100C70003181820F931F2091C4013091C501281743
:100C8000390709F061C0F093C501E093C401DF9119
:100C9000CF910895EA01CE17DF07E8F54A815B811D
:100CA0009E0141155105B1F7E901FB83EA834991A2
:100CB0005991C40FD51FEC17FD0761F48081918114
:100CC0000296840F951FE90199838883828193811D
:100CD0009B838A83F0E0E0E012968D919C911397BC
:100CE0000097B9F52D913C911197CD010296820F95
:100CF000931F2091C4013091C5012817390739F697
:100D0000309751F51092C7011092C601B093C501FA
:100D1000A093C401BCCFD383C28340815181840F8F
:100D2000951FC817D90761F44E5F5F4F888199817D
:100D3000480F591F518340838A819B81938382830B
:100D40002115310509F0B0CFF093C701E093C6013A
:100D50009ECFFD01DC01C0CF13821282D7CFB0E05D
:100D6000A0E0E5EBF6E00C942D058C01009751F422
:100D7000CB010E948A058C01C801CDB7DEB7E0E146
:100D80000C944905FC01E60FF71F9C012250310924
:100D9000E217F30708F49DC0D901CD91DC911197BA
:100DA000C617D70798F0C530D10530F3CE010497A8
:100DB0008617970708F3C61BD70B2297C193D193C9
:100DC0006D937C93CF010E942606D6CF5B01AC1AAF
:100DD000BD0A4C018C0E9D1EA091C601B091C701A9
:100DE000512C412CF12CE12C109731F58091C4014C
:100DF0009091C5018815990509F05CC04616570603
:100E000008F058C08091000190910101009741F4D1
:100E10008DB79EB74091040150910501841B950B3D
:100E2000E817F90708F055C0F093C501E093C40135
:100E3000F90171836083A0CF8D919C9111971296D7
:100E40006C90129713967C901397A815B90559F5D5
:100E50006C0142E0C40ED11CCA14DB0420F1AC01C9
:100E60004A195B09DA011296159780F06282738243
:100E700051834083D9016D937C93E114F10471F0A7
:100E8000D7011396FC93EE93129776CF22968C0F90
:100E90009D1FF90191838083F301EFCFF093C70188
:100EA000E093C60169CF4816590608F42C017D016C
:100EB000D3019ACFCB010E948A057C01009749F0AB
:100EC000AE01B8010E946C07C8010E942606870186
:100ED00053CF10E000E050CFFB01DC0102C00190D5
:100EE0000D9241505040D8F70895FB01DC0101906C
:0C0EF0000D920020E1F70895F894FFCF68
:100EFC000000C8018000000000005401B400E100B3
:0E0F0C00A1011201F00004012C000D0A0000EA
:00000001FF
